:100000000C942A000C9447000C9447000C94470071
:100010000C9447000C9447000C9447000C94470044
:100020000C9447000C9447000C9447000C94470034
:100030000C9447000C9447000C9447000C94470024
:100040000C9447000C9447000C9447000C94470014
:100050000C94470011241FBECFE5D8E0DEBFCDBF12
:1000600012E0A0E6B0E0E2E5F6E402C005900D92F1
:10007000A837B107D9F712E0A8E7B2E001C01D9296
:10008000AA38B107E1F70E948D1C0C9427230C9429
:100090000000EF92FF920F931F937B018C0120E0F1
:1000A00030E040E05FE40E94790388238CF0C801CF
:1000B000B70120E030E040E05FE40E94C1010E940F
:1000C000D9039B01AC01205030404040504806C04D
:1000D000C801B7010E94D9039B01AC01B901CA0153
:1000E0001F910F91FF90EF900895A0E0B0E0EBE733
:1000F000F0E00C94F022DC012B01FA019C9192308B
:1001000008F439C1EB018881823008F433C194309E
:1001100069F4843009F02FC111969C91119789815F
:10012000981709F428C1AAE0B1E025C1843009F488
:1001300021C18230A9F4923009F01DC19A01AD01AC
:1001400088E0EA010990AE01E90109929E0181501F
:10015000C1F7E201898111969C918923818308C1AD
:10016000923009F407C112962D903C901397EB0141
:100170008A819B811496AD90BD90CD90DC901797AD
:10018000EC80FD800E811F819101281B390BB90184
:1001900037FF04C066277727621B730B6032710537
:1001A0000CF061C0121613066CF537014801062EDB
:1001B00004C096948794779467940A94D2F721E0C8
:1001C00030E040E050E004C0220F331F441F551FB1
:1001D0006A95D2F721503040404050402E213F21B7
:1001E00040235123211531054105510521F021E01E
:1001F00030E040E050E079018A01E628F72808293C
:1002000019293CC0232BD1F1260E371E350146019A
:10021000062E04C096948794779467940A94D2F734
:1002200021E030E040E050E004C0220F331F441FC3
:10023000551F6A95D2F721503040404050402A2146
:100240003B214C215D21211531054105510521F04E
:1002500021E030E040E050E059016A01A628B728CB
:10026000C828D9280BC0821593052CF01C01AA249C
:10027000BB24650103C0EE24FF24870111969C91E5
:10028000D20111968C91981709F445C0992339F041
:10029000A80197012A193B094C095D0906C0A6016E
:1002A00095012E193F09400B510B57FD08C01182D3
:1002B0003382228224833583468357831DC081E0A5
:1002C00081833382228288279927DC01821B930B4A
:1002D000A40BB50B84839583A683B7830DC0220F2F
:1002E000331F441F551F24833583468357838281E0
:1002F000938101979383828324813581468157813D
:10030000DA01C9010197A109B1098F5F9F4FAF4F72
:10031000BF4328F30BC0918333822282EA0CFB1C7B
:100320000C1D1D1DE482F5820683178383E0808304
:10033000248135814681578157FF1AC0C901AA27F8
:1003400097FDA095BA2F81709070A070B0705695EF
:10035000479537952795822B932BA42BB52B848318
:100360009583A683B7838281938101969383828349
:10037000DF0101C0D201CD01CDB7DEB7E2E10C94BF
:100380000C23A0E2B0E0E7ECF1E00C94FC226983DE
:100390007A838B839C832D833E834F835887E9E048
:1003A000EE2EF12CEC0EFD1ECE010196B7010E943F
:1003B000CA058E010F5E1F4FCE010596B8010E943F
:1003C000CA058A8991E089278A8BC701B801AE01E5
:1003D000475E5F4F0E9475000E94F504A096E6E01C
:1003E0000C941823A0E2B0E0E8EFF1E00C94FC22BA
:1003F00069837A838B839C832D833E834F835887C5
:10040000F9E0EF2EF12CEC0EFD1ECE010196B701A6
:100410000E94CA058E010F5E1F4FCE010596B801DE
:100420000E94CA05C701B801AE01475E5F4F0E9436
:1004300075000E94F504A096E6E00C941823A0E253
:10044000B0E0E5E2F2E00C94F02269837A838B83DA
:100450009C832D833E834F835887CE010196BE0136
:10046000675F7F4F0E94CA05CE010596BE016F5E91
:100470007F4F0E94CA059985923088F08989823021
:10048000C8F0943019F4823051F404C0843029F457
:10049000923081F48AE091E0C6C0923049F420E0C5
:1004A0009A858A89981321E02A87CE010996BBC0D4
:1004B000823049F420E09A858A89981321E02A8BBA
:1004C000CE014196B0C02D843E844F8458886D88FB
:1004D0007E888F88988CEE24FF248701AA24BB2471
:1004E000650140E050E060E070E0E0E0F0E0C10174
:1004F00081709070892BE9F0E60CF71C081D191D1E
:100500009A01AB012A0D3B1D4C1D5D1D80E090E062
:10051000A0E0B0E0E614F7040805190520F481E036
:1005200090E0A0E0B0E0BA01A901480F591F6A1F8E
:100530007B1FAA0CBB1CCC1CDD1C97FE08C081E0F5
:1005400090E0A0E0B0E0A82AB92ACA2ADB2A3196B6
:10055000E032F10549F0660C771C881C991C569412
:10056000479437942794C3CFFA85EA892B893C892D
:100570008B859C85280F391F2E5F3F4F17C0CA01FE
:1005800081709070892B61F016950795F794E79428
:1005900080E090E0A0E0B0E8E82AF92A0A2B1B2BC3
:1005A00076956795579547952F5F3F4F77FDE7CF36
:1005B0000CC0440F551F661F771F17FD4160EE0CDE
:1005C000FF1C001F111F21503040403090E05907A0
:1005D00090E0690790E4790760F32B8F3C8FDB0193
:1005E000CA018F779070A070B07080349105A1051A
:1005F000B10561F447FD0AC0E114F10401051105DC
:1006000029F0405C5F4F6F4F7F4F40781A8EFE1786
:1006100011F081E08A8F4D8F5E8F6F8F78A383E01A
:10062000898FCE0149960E94F504A096E2E10C94D0
:100630000C23A8E1B0E0EFE1F3E00C94FC22698325
:100640007A838B839C832D833E834F83588789E0F5
:10065000E82EF12CEC0EFD1ECE010196B7010E9492
:10066000CA058E010F5E1F4FCE010596B8010E948C
:10067000CA058985823040F08989823028F0C70117
:10068000B8010E94420601C081E06896E6E00C9441
:100690001823A8E1B0E0EFE4F3E00C94FC226983B6
:1006A0007A838B839C832D833E834F83588789E095
:1006B000E82EF12CEC0EFD1ECE010196B7010E9432
:1006C000CA058E010F5E1F4FCE010596B8010E942C
:1006D000CA058985823040F08989823028F0C701B7
:1006E000B8010E94420601C08FEF6896E6E00C94C4
:1006F0001823A8E1B0E0EFE7F3E00C94FC22698353
:100700007A838B839C832D833E834F83588789E034
:10071000E82EF12CEC0EFD1ECE010196B7010E94D1
:10072000CA058E010F5E1F4FCE010596B8010E94CB
:10073000CA058985823040F08989823028F0C70156
:10074000B8010E94420601C08FEF6896E6E00C9463
:100750001823A8E1B0E0EFEAF3E00C94FC226983EF
:100760007A838B839C832D833E834F83588789E0D4
:10077000E82EF12CEC0EFD1ECE010196B7010E9471
:10078000CA058E010F5E1F4FCE010596B8010E946B
:10079000CA058985823040F08989823028F0C701F6
:1007A000B8010E94420601C081E06896E6E00C9420
:1007B0001823ACE0B0E0EFEDF3E00C940023698384
:1007C0007A838B839C83CE010196BE016B5F7F4F42
:1007D0000E94CA058D81823061F1823050F18430EF
:1007E00021F48E81882351F12EC02F81388537FD69
:1007F00020C06E812F3131051CF06623F9F023C033
:100800008EE190E0821B930B29853A854B855C85B0
:1008100004C056954795379527958A95D2F7662354
:10082000B1F050954095309521953F4F4F4F5F4F18
:100830000EC020E030E040E050E009C02FEF3FEF75
:100840004FEF5FE704C020E030E040E050E8B9013E
:10085000CA012C96E2E00C941C23A8E0B0E0E3E38C
:10086000F4E00C94F8227B018C016115710581057F
:10087000910519F482E0898360C083E089838EE169
:10088000C82ED12CDC82CB82ED82FE820F831887AA
:10089000C801B7010E94A604FC013197F7FF3BC0D5
:1008A000222733272E1B3F0B57016801022E04C05D
:1008B000D694C794B794A7940A94D2F740E050E036
:1008C00060E070E081E090E0A0E0B0E004C0880F5C
:1008D000991FAA1FBB1F2A95D2F70197A109B10939
:1008E0008E219F21A023B1230097A105B10521F0FE
:1008F00041E050E060E070E04A295B296C297D29E5
:100900004D835E836F8378878EE190E08E1B9F0B13
:100910009C838B8312C0309781F00E2E04C0EE0CA6
:10092000FF1C001F111F0A94D2F7ED82FE820F8375
:100930001887CE1ADF0ADC82CB821A82CE0101969A
:100940000E94F5042896EAE00C941423EF92FF929B
:100950000F931F937B018C0180E0E81680E0F8067E
:1009600081E0080780E0180788F48FEFE816F104AB
:100970000105110531F028F088E090E0A0E0B0E03A
:1009800017C080E090E0A0E0B0E012C080E0E81680
:1009900080E0F80680E0080781E0180728F088E189
:1009A00090E0A0E0B0E004C080E190E0A0E0B0E022
:1009B00020E230E040E050E0281B390B4A0B5B0B93
:1009C00004C016950795F794E7948A95D2F7F70136
:1009D000EE5EFE4F8081281B310941095109C90192
:1009E0001F910F91FF90EF900895DF92EF92FF9289
:1009F0000F931F93FC01E480F58006811781D1805D
:100A00008081823048F480E090E0A0E1B0E0E82A04
:100A1000F92A0A2B1B2BA5C0843009F49FC0823011
:100A200021F4EE24FF24870105C0E114F10401053F
:100A3000110519F4E0E0F0E096C0628173819FEF48
:100A4000623879070CF05BC022E83FEF261B370BBA
:100A50002A3131052CF020E030E040E050E02AC09F
:100A6000B801A701022E04C0769567955795479562
:100A70000A94D2F781E090E0A0E0B0E004C0880FD3
:100A8000991FAA1FBB1F2A95D2F70197A109B10987
:100A90008E219F21A023B1230097A105B10521F04C
:100AA00081E090E0A0E0B0E09A01AB01282B392B67
:100AB0004A2B5B2BDA01C9018F779070A070B07060
:100AC00080349105A105B10539F427FF09C0205CE8
:100AD0003F4F4F4F5F4F04C0215C3F4F4F4F5F4F21
:100AE000E0E0F0E02030A0E03A07A0E04A07A0E410
:100AF0005A0710F0E1E0F0E079018A0127C0603880
:100B0000710564F5FB01E158FF4FD801C7018F77EC
:100B10009070A070B07080349105A105B10539F4D2
:100B2000E7FE0DC080E490E0A0E0B0E004C08FE3F9
:100B300090E0A0E0B0E0E80EF91E0A1F1B1F17FFAF
:100B400005C016950795F794E794319687E01695BA
:100B50000795F794E7948A95D1F705C0EE24FF2412
:100B60008701EFEFF0E06E2F679566276795902F6E
:100B70009F77D794DD24D7948E2F8695492F462BC7
:100B8000582F5D29B701CA011F910F91FF90EF9077
:100B9000DF900895FC01DB01408151812281622FA9
:100BA0006F7770E0221F2227221F9381892F880FE1
:100BB000822B282F30E0991F9927991F11969C931B
:100BC000119721153105A9F54115510561057105EB
:100BD00011F482E037C082E89FEF13969C938E93C6
:100BE00012979A01AB0167E0220F331F441F551F74
:100BF0006A95D1F783E08C930DC0220F331F441FF9
:100C0000551F12968D919C911397019713969C9363
:100C10008E931297203080E0380780E0480780E408
:100C2000580758F314962D933D934D935C93179763
:100C300008952F3F310579F441155105610571057E
:100C400019F484E08C93089564FF03C081E08C93D1
:100C500012C01C9210C02F57304013963C932E9315
:100C6000129783E08C9387E0440F551F661F771F10
:100C70008A95D1F7706414964D935D936D937C9330
:100C8000179708951F93DC01FB019C91923008F4A3
:100C900047C08081823008F443C0943051F41196EB
:100CA0001C91843099F58181682F70E0611B710976
:100CB0003FC0843021F0923031F48230B9F181812B
:100CC000882389F12DC011961C9111978230F1F083
:100CD00081811817D9F412962D913C911397828136
:100CE00093818217930794F028173907BCF0149664
:100CF0008D919D910D90BC91A02D248135814681CF
:100D00005781281739074A075B0718F4112341F068
:100D10000AC082179307A407B50740F4112319F0FE
:100D200061E070E005C06FEF7FEF02C060E070E04F
:100D3000CB011F910895DF93CF93CDB7DEB7AFE519
:100D4000B0E0EFE5F0E0808180688C93CF91DF9197
:100D50000895DF93CF93CDB7DEB7AFE5B0E0EFE511
:100D6000F0E080818F778C93CF91DF910895DF93AE
:100D7000CF930F92CDB7DEB781E089831982898145
:100D80000F90CF91DF910895DF93CF9300D000D0E3
:100D900000D0CDB7DEB78A836B834C8381E0898333
:100DA0008A81843008F0D0C08B81883008F0CCC0B4
:100DB0008C81823008F0C8C08A81282F30E03E83C1
:100DC0002D836D817E816130710509F441C08D8173
:100DD0009E818230910534F42D813E8121153105AB
:100DE00071F0B0C06D817E816230710509F459C027
:100DF0008D819E818330910509F47CC0A3C0AAE354
:100E0000B0E0EAE3F0E08081482F8B81282F30E0CA
:100E100081E090E002C0880F991F2A95E2F7809543
:100E200084238C93AAE3B0E0EAE3F0E08081482FCA
:100E30008C81282F30E08B81882F90E0B90102C08F
:100E4000660F771F8A95E2F7CB01842B8C937AC0CB
:100E5000A7E3B0E0E7E3F0E08081482F8B81282F03
:100E600030E081E090E002C0880F991F2A95E2F7F8
:100E7000809584238C93A7E3B0E0E7E3F0E08081E2
:100E8000482F8C81282F30E08B81882F90E0B9018A
:100E900002C0660F771F8A95E2F7CB01842B8C93F3
:100EA00051C0A4E3B0E0E4E3F0E08081482F8B81FF
:100EB000282F30E081E090E002C0880F991F2A952A
:100EC000E2F7809584238C93A4E3B0E0E4E3F0E0C0
:100ED0008081482F8C81282F30E08B81882F90E0F3
:100EE000B90102C0660F771F8A95E2F7CB01842B08
:100EF0008C9328C0A1E3B0E0E1E3F0E08081482FCB
:100F00008B81282F30E081E090E002C0880F991F8C
:100F10002A95E2F7809584238C93A1E3B0E0E1E386
:100F2000F0E08081482F8C81282F30E08B81882F42
:100F300090E0B90102C0660F771F8A95E2F7CB01F6
:100F4000842B8C93198202C082E089838981269642
:100F50000FB6F894DEBF0FBECDBFCF91DF910895DD
:100F6000DF93CF9300D000D000D0CDB7DEB78A8317
:100F70006B834C8381E089838A81843008F0D0C000
:100F80008B81883008F0CCC08C81823008F0C8C0DA
:100F90008A81282F30E03E832D836D817E816130F0
:100FA000710509F441C08D819E818230910534F430
:100FB0002D813E812115310571F0B0C06D817E819A
:100FC0006230710509F459C08D819E81833091058D
:100FD00009F47CC0A3C0ABE3B0E0EBE3F0E08081B8
:100FE000482F8B81282F30E081E090E002C0880FED
:100FF000991F2A95E2F7809584238C93ABE3B0E0A8
:10100000EBE3F0E08081482F8C81282F30E08B814A
:10101000882F90E0B90102C0660F771F8A95E2F72A
:10102000CB01842B8C937AC0A8E3B0E0E8E3F0E036
:101030008081482F8B81282F30E081E090E002C032
:10104000880F991F2A95E2F7809584238C93A8E353
:10105000B0E0E8E3F0E08081482F8C81282F30E079
:101060008B81882F90E0B90102C0660F771F8A95A7
:10107000E2F7CB01842B8C9351C0A5E3B0E0E5E30C
:10108000F0E08081482F8B81282F30E081E090E0D4
:1010900002C0880F991F2A95E2F7809584238C93CC
:1010A000A5E3B0E0E5E3F0E08081482F8C81282FB4
:1010B00030E08B81882F90E0B90102C0660F771F66
:1010C0008A95E2F7CB01842B8C9328C0A2E3B0E091
:1010D000E2E3F0E08081482F8B81282F30E081E02F
:1010E00090E002C0880F991F2A95E2F7809584232B
:1010F0008C93A2E3B0E0E2E3F0E08081482F8C81A2
:10110000282F30E08B81882F90E0B90102C0660F54
:10111000771F8A95E2F7CB01842B8C93198202C04A
:1011200082E08983898126960FB6F894DEBF0FBED0
:10113000CDBFCF91DF910895DF93CF9300D000D042
:1011400000D0CDB7DEB78A836B834C8381E089837F
:101150008A81843008F0DBC08B81883008F0D7C0EA
:101160008C81823008F0D3C08A81282F30E03E8302
:101170002D838D819E818130910509F443C02D819D
:101180003E81223031052CF48D819E81009771F0D3
:10119000BCC02D813E812230310509F45FC08D81B4
:1011A0009E818330910509F485C0AFC08C81813068
:1011B000A1F4ABE3B0E0EBE3F0E08081482F8B815A
:1011C000282F30E081E090E0022E02C0880F991FA6
:1011D0000A94E2F7842B8C9398C0ABE3B0E0EBE386
:1011E000F0E08081482F8B81282F30E081E090E073
:1011F000022E02C0880F991F0A94E2F7809584237B
:101200008C9383C08C818130A1F4A8E3B0E0E8E343
:10121000F0E08081482F8B81282F30E081E090E042
:10122000022E02C0880F991F0A94E2F7842B8C9338
:101230006CC0A8E3B0E0E8E3F0E08081482F8B8148
:10124000282F30E081E090E0022E02C0880F991F25
:101250000A94E2F7809584238C9357C08C81813067
:10126000A1F4A5E3B0E0E5E3F0E08081482F8B81B5
:10127000282F30E081E090E0022E02C0880F991FF5
:101280000A94E2F7842B8C9340C0A5E3B0E0E5E339
:10129000F0E08081482F8B81282F30E081E090E0C2
:1012A000022E02C0880F991F0A94E2F780958423CA
:1012B0008C932BC08C818130A1F4A2E3B0E0E2E3F7
:1012C000F0E08081482F8B81282F30E081E090E092
:1012D000022E02C0880F991F0A94E2F7842B8C9388
:1012E00014C0A2E3B0E0E2E3F0E08081482F8B81FC
:1012F000282F30E081E090E0022E02C0880F991F75
:101300000A94E2F7809584238C93198202C082E0CC
:101310008983898126960FB6F894DEBF0FBECDBFB4
:10132000CF91DF910895DF93CF9300D000D00F923B
:10133000CDB7DEB78A836B8381E089838A8184306D
:1013400008F073C08B81883008F06FC08A81282F25
:1013500030E03D832C838C819D818130910549F162
:101360002C813D81223031052CF48C819D810097A8
:1013700061F05AC02C813D812230310571F18C81A0
:101380009D8183309105E9F14FC0ABE3B0E0EBE321
:10139000F0E08081482F8B81282F30E081E090E0C1
:1013A000022E02C0880F991F0A94E2F784278C93BB
:1013B0003BC0A8E3B0E0E8E3F0E08081482F8B81F8
:1013C000282F30E081E090E0022E02C0880F991FA4
:1013D0000A94E2F784278C9327C0A5E3B0E0E5E305
:1013E000F0E08081482F8B81282F30E081E090E071
:1013F000022E02C0880F991F0A94E2F784278C936B
:1014000013C0A2E3B0E0E2E3F0E08081482F8B81DB
:10141000282F30E081E090E0022E02C0880F991F53
:101420000A94E2F784278C93198289810F900F9098
:101430000F900F900F90CF91DF910895DF93CF938E
:10144000CDB7DEB727970FB6F894DEBF0FBECDBF7E
:101450008A836B835D834C8381E089838C819D814A
:10146000009709F47DC08A81843008F076C08B81B2
:10147000883008F072C08A81282F30E03F832E83A5
:101480004E815F814130510559F18E819F818230BB
:10149000910534F42E813F812115310569F05BC03F
:1014A0004E815F814230510579F18E819F81833079
:1014B000910509F43DC04FC0E9E3F0E08081282F99
:1014C00030E08B81882F90E0A90102C055954795A7
:1014D0008A95E2F7CA018170EC81FD8180833BC06F
:1014E000E6E3F0E08081282F30E08B81882F90E0C8
:1014F000A90102C0559547958A95E2F7CA01817006
:10150000EC81FD81808327C0E3E3F0E08081282F18
:1015100030E08B81882F90E0A90102C05595479556
:101520008A95E2F7CA018170EC81FD81808313C046
:10153000E0E3F0E08081282F30E08B81882F90E07D
:10154000A90102C0559547958A95E2F7CA018170B5
:10155000EC81FD818083198205C082E0898302C00D
:1015600083E08983898127960FB6F894DEBF0FBE8A
:10157000CDBFCF91DF910895DF93CF930F92CDB779
:10158000DEB781E08983A7E2B0E0E7E2F0E08081A6
:101590008F738C93A7E2B0E0E7E2F0E08081806295
:1015A0008C93A6E2B0E0E6E2F0E080818F7D8C9340
:1015B000A0E5B0E0E0E5F0E080818C93A6E2B0E049
:1015C000E6E2F0E0808188608C93A6E2B0E0E6E29B
:1015D000F0E08081887F8C93A6E2B0E0E6E2F0E064
:1015E000808186608C93A6E2B0E0E6E2F0E0808144
:1015F00080688C93198289810F90CF91DF91089533
:10160000DF93CF9300D0CDB7DEB78A8381E08983A3
:101610008A81813041F4A7E2B0E0E7E2F0E0808126
:1016200080628C930DC08A81882341F4A7E2B0E0E8
:10163000E7E2F0E080818F7D8C9302C082E08983B5
:1016400089810F900F90CF91DF910895DF93CF9311
:1016500000D000D0CDB7DEB78A8381E089838A814C
:10166000282F30E03C832B838B819C818430910533
:1016700009F481C02B813C8125303105ECF48B814C
:101680009C818130910509F447C02B813C81223037
:1016900031052CF48B819C81009779F1AAC02B81B4
:1016A0003C812230310509F447C08B819C81833015
:1016B000910509F450C09DC02B813C812630310535
:1016C00009F478C08B819C81863091050CF462C04E
:1016D0002B813C812730310509F47BC08B819C81B3
:1016E0008830910509F085C0A6E2B0E0E6E2F0E0BE
:1016F00080818F7D8C9319827EC0A6E2B0E0E6E205
:10170000F0E0808180628C93A0E5B0E0E0E5F0E05D
:1017100080818C9319826FC0A6E2B0E0E6E2F0E02F
:10172000808180628C93A0E5B0E0E0E5F0E080810C
:1017300080688C9319825FC0A6E2B0E0E6E2F0E038
:10174000808180628C93A0E5B0E0E0E5F0E08081EC
:101750008C93198250C0A6E2B0E0E6E2F0E080810E
:1017600080628C93A0E5B0E0E0E5F0E080818068E5
:101770008C93198240C0A6E2B0E0E6E2F0E08081FE
:1017800080628C93A0E5B0E0E0E5F0E080818C938E
:10179000198231C0A6E2B0E0E6E2F0E0808180622A
:1017A0008C93A0E5B0E0E0E5F0E0808180688C9368
:1017B000198221C0A6E2B0E0E6E2F0E0808180621A
:1017C0008C93A0E5B0E0E0E5F0E080818C93198295
:1017D00012C0A6E2B0E0E6E2F0E0808180628C9385
:1017E000A0E5B0E0E0E5F0E0808180688C931982AC
:1017F00002C082E0898389810F900F900F900F9033
:10180000CF91DF910895DF93CF930F92CDB7DEB7DD
:1018100081E08983A6E2B0E0E6E2F0E080818061C9
:101820008C93198289810F90CF91DF910895DF9376
:10183000CF930F92CDB7DEB781E08983A6E2B0E007
:10184000E6E2F0E080818F7E8C93198289810F908F
:10185000CF91DF910895DF93CF930F92CDB7DEB78D
:1018600081E08983A6E2B0E0E6E2F0E08081886072
:101870008C93198289810F90CF91DF910895DF9326
:10188000CF930F92CDB7DEB781E08983A6E2B0E0B7
:10189000E6E2F0E08081877F8C93198289810F9046
:1018A000CF91DF910895DF93CF9300D00F92CDB702
:1018B000DEB79B838A8381E089838A819B8100973D
:1018C00059F0E6E2F0E0808182958F708170EA81C4
:1018D000FB818083198202C083E0898389810F9014
:1018E0000F900F90CF91DF910895DF93CF9300D0A9
:1018F0000F92CDB7DEB79B838A8381E089838A818B
:101900009B81009769F0E6E2F0E080818295869500
:10191000869583708170EA81FB818083198202C081
:1019200083E0898389810F900F900F90CF91DF9191
:101930000895DF93CF9300D000D0CDB7DEB78A8370
:1019400081E089838A81282F30E03C832B838B813F
:101950009C8184309105E9F12B813C812530310552
:1019600084F48B819C818230910519F12B813C811B
:101970002330310534F58B819C818130910589F0CC
:1019800048C02B813C812630310599F18B819C81A7
:101990008630910534F12B813C812730310589F166
:1019A00038C0A6E2B0E0E6E2F0E0808181608C938E
:1019B00032C0A6E2B0E0E6E2F0E0808182608C9383
:1019C0002AC0A6E2B0E0E6E2F0E0808183608C937A
:1019D00022C0A6E2B0E0E6E2F0E0808184608C9371
:1019E0001AC0A6E2B0E0E6E2F0E0808185608C9368
:1019F00012C0A6E2B0E0E6E2F0E0808186608C935F
:101A00000AC0A6E2B0E0E6E2F0E0808187608C9355
:101A100002C082E0898389810F900F900F900F9010
:101A2000CF91DF910895DF93CF93CDB7DEB727979E
:101A30000FB6F894DEBF0FBECDBF8A837C836B8365
:101A400081E089838B819C810097E9F18A81282F2D
:101A500030E03E832D838D819E818330910551F14D
:101A60002D813E81243031057CF48D819E81813031
:101A7000910501F12D813E8122303105DCF48D810B
:101A80009E810097B9F014C02D813E81253031052B
:101A900089F08D819E818530910564F02D813E8194
:101AA0002630310539F08D819E818730910511F006
:101AB00082E08983A6E2B0E0E6E2F0E08081806423
:101AC0008C93198202C083E0898327960FB6F8941D
:101AD000DEBF0FBECDBFCF91DF910895DF93CF93CF
:101AE00000D00F92CDB7DEB79B838A8381E08983D4
:101AF0008A819B81009741F0E5E2F0E08081EA81F4
:101B0000FB818083198202C083E0898389810F90E1
:101B10000F900F90CF91DF910895DF93CF9300D076
:101B20000F92CDB7DEB79B838A8381E089838A8158
:101B30009B81009741F0E4E2F0E08081EA81FB8143
:101B40008083198202C083E0898389810F900F907E
:101B50000F90CF91DF910895DF93CF9300D0CDB751
:101B6000DEB781E08A831982198231C08981882F8A
:101B700090E0880F991FFC01ED5EFD4F2081898167
:101B8000882F90E0880F991FFC01EC5EFD4F90813B
:101B9000822F692F41E00E94C4068981882F90E03E
:101BA000880F991FFC01ED5EFD4F20818981882FF0
:101BB00090E0880F991FFC01EC5EFD4F9081822F11
:101BC000692F40E00E949C0889818F5F89839091F2
:101BD00012028981891750F21A828A810F900F9020
:101BE000CF91DF910895DF93CF9300D0CDB7DEB7CB
:101BF0008A8381E08983909112028A818917C8F4CF
:101C00008A81882F90E0880F991FFC01ED5EFD4FBF
:101C100020818A81882F90E0880F991FFC01EC5E5B
:101C2000FD4F9081822F692F41E00E949C0889839B
:101C300002C082E0898389810F900F90CF91DF915C
:101C40000895DF93CF9300D0CDB7DEB78A8381E0CC
:101C50008983909112028A818917C8F48A81882F1A
:101C600090E0880F991FFC01ED5EFD4F20818A8175
:101C7000882F90E0880F991FFC01EC5EFD4F90814A
:101C8000822F692F40E00E949C08898302C082E075
:101C9000898389810F900F90CF91DF910895DF9311
:101CA000CF9300D0CDB7DEB781E08A831982198245
:101CB0001AC08981882F90E0880F991FFC01ED5E82
:101CC000FD4F20818981882F90E0880F991FFC01AA
:101CD000EC5EFD4F9081822F692F41E00E949C08AD
:101CE00089818F5F8983909112028981891708F316
:101CF00082E08A838A810F900F90CF91DF910895BF
:101D0000DF93CF9300D0CDB7DEB781E08A8319820D
:101D100019821AC08981882F90E0880F991FFC01D1
:101D2000ED5EFD4F20818981882F90E0880F991FFB
:101D3000FC01EC5EFD4F9081822F692F40E00E94F4
:101D40009C0889818F5F898390911202898189170C
:101D500008F38A810F900F90CF91DF910895DF9360
:101D6000CF9300D0CDB7DEB781E08A831982198284
:101D700031C08981882F90E0880F991FFC01EA5EAD
:101D8000FD4F20818981882F90E0880F991FFC01E9
:101D9000E95EFD4F9081822F692F41E00E94C406C9
:101DA0008981882F90E0880F991FFC01EA5EFD4F22
:101DB00020818981882F90E0880F991FFC01E95EBE
:101DC000FD4F9081822F692F40E00E949C088981FD
:101DD0008F5F8983909115028981891750F21A8249
:101DE0008A810F900F90CF91DF910895DF93CF9369
:101DF00000D0CDB7DEB78A8381E089839091150248
:101E00008A818917C8F48A81882F90E0880F991FEA
:101E1000FC01EA5EFD4F20818A81882F90E0880FC7
:101E2000991FFC01E95EFD4F9081822F692F41E0EF
:101E30000E949C08898302C082E0898389810F9077
:101E40000F90CF91DF910895DF93CF9300D0CDB75E
:101E5000DEB78A8381E08983909115028A81981781
:101E6000C8F08A81882F90E0880F991FFC01EA5EF4
:101E7000FD4F20818A81882F90E0880F991FFC01F7
:101E8000E95EFD4F9081822F692F40E00E949C08FF
:101E9000898302C082E0898389810F900F90CF915E
:101EA000DF910895DF93CF9300D0CDB7DEB781E007
:101EB0008A83198219821AC08981882F90E0880F3D
:101EC000991FFC01EA5EFD4F20818981882F90E0F7
:101ED000880F991FFC01E95EFD4F9081822F692FC9
:101EE00041E00E949C0889818F5F8983909115024F
:101EF0008981891708F31A828A810F900F90CF91F8
:101F0000DF910895DF93CF9300D0CDB7DEB781E0A6
:101F10008A83198219821AC08981882F90E0880FDC
:101F2000991FFC01EA5EFD4F20818981882F90E096
:101F3000880F991FFC01E95EFD4F9081822F692F68
:101F400040E00E949C0889818F5F898390911502EF
:101F50008981891708F31A828A810F900F90CF9197
:101F6000DF910895DF93CF93CDB7DEB76D970FB6AE
:101F7000F894DEBF0FBECDBF81E08D8F80E090E092
:101F8000ACE0B2E4898F9A8FAB8FBC8F698D7A8D6C
:101F90008B8D9C8D20E030E04AE755E40E941F02C3
:101FA000DC01CB018D8B9E8BAF8BB88F6D897E89C9
:101FB0008F89988D20E030E040E85FE30E94A9031C
:101FC00088232CF481E090E09C8B8B8B3FC06D8943
:101FD0007E898F89988D20E03FEF4FE757E40E947C
:101FE000490318164CF5698D7A8D8B8D9C8D20E0F8
:101FF00030E040E251E40E941F02DC01CB01BC0151
:10200000CD010E944900DC01CB019C8B8B8B0FC062
:1020100080E991E09A8B898B89899A890197F1F7F8
:102020009A8B898B8B899C8901979C8B8B8B8B8955
:102030009C89009769F714C06D897E898F89988D76
:102040000E944900DC01CB019C8B8B8B8B899C8986
:10205000988B8F878F8598890197F1F7988B8F8759
:1020600081E061E041E00E94C40681E062E041E07D
:102070000E94C40681E063E041E00E94C40680E063
:1020800067E041E00E94C40680E066E041E00E9413
:10209000C40680E065E041E00E94C40680E064E0A0
:1020A00041E00E94C40681E061E040E00E949C089B
:1020B00080E067E040E00E949C0880E066E040E04D
:1020C0000E949C0880E065E041E00E949C0880E05E
:1020D00064E040E00E949C0881E063E041E00E94EF
:1020E0009C0880E090E0A0E8BFE38B879C87AD87E9
:1020F000BE876B857C858D859E8520E030E04AE734
:1021000055E40E941F02DC01CB018F839887A987C9
:10211000BA876F81788589859A8520E030E040E82C
:102120005FE30E94A90388232CF481E090E09E8362
:102130008D833FC06F81788589859A8520E03FEF48
:102140004FE757E40E94490318164CF56B857C85D0
:102150008D859E8520E030E040E251E40E941F0220
:10216000DC01CB01BC01CD010E944900DC01CB01A7
:102170009E838D830FC080E991E09C838B838B814C
:102180009C810197F1F79C838B838D819E810197C0
:102190009E838D838D819E81009769F714C06F8126
:1021A000788589859A850E944900DC01CB019E8350
:1021B0008D838D819E819A83898389819A810197FC
:1021C000F1F79A83898381E063E040E00E949C08F4
:1021D00081E061E040E00E949C0888E20E94FB15DB
:1021E00081E061E040E00E949C088CE00E94FB15C9
:1021F00081E061E040E00E949C0881E00E94FB15C4
:1022000081E061E040E00E949C0886E00E94FB15AE
:102210001D8E8D8D6D960FB6F894DEBF0FBECDBFAF
:10222000CF91DF910895DF93CF9300D0CDB7DEB784
:102230008A8381E0898381E061E040E00E949C081C
:102240008A810E94FB15198289810F900F90CF918E
:10225000DF910895DF93CF9300D0CDB7DEB78A83A7
:1022600081E0898381E061E041E00E949C088A81ED
:102270000E94FB15198289810F900F90CF91DF91F9
:102280000895DF93CF9300D000D0CDB7DEB78A8317
:102290006B834C8381E089838B81813188F58B81CD
:1022A000882371F18A81833058F58A81882341F12E
:1022B0008C81853028F58C81882311F181E061E0E3
:1022C00040E00E949C088C81882F90E09C01215066
:1022D00030408A81882F90E00197880F991F880FDE
:1022E000991F820F931F82959295907F9827807FE8
:1022F0009827982F8B81890F81580E94FB1502C067
:1023000082E0898389810F900F900F900F90CF9179
:10231000DF910895DF93CF9300D00F92CDB7DEB752
:102320009B838A8381E089838A819B810097C1F0A6
:1023300010C081E061E041E00E949C08EA81FB81DD
:1023400020818A819B8101969B838A83822F0E94B0
:10235000FB15EA81FB818081882359F7198202C02D
:1023600083E0898389810F900F900F90CF91DF9147
:102370000895DF93CF9300D00F92CDB7DEB78B8354
:1023800081E08A838B81882309F449C08B81853061
:1023900008F045C0198281E061E040E00E949C089D
:1023A0008B81882F90E0079682959295907F982751
:1023B000807F98270E94FB1581E061E041E00E9448
:1023C0009C08198206C080E20E94FB1589818F5FFC
:1023D000898389818031B8F381E061E040E00E9427
:1023E0009C088B81882F90E00B9682959295907F28
:1023F0009827807F98270E94FB1581E061E041E0EB
:102400000E949C08198206C080E20E94FB15898107
:102410008F5F898389818031B8F31A8202C082E09C
:102420008A838A810F900F900F90CF91DF9108954A
:10243000DF93CF9300D000D0CDB7DEB78B836C8312
:1024400081E08A838B81882309F45FC08B8183308C
:1024500008F05BC0198281E061E040E00E949C08C6
:102460008B81813069F48C81882F90E0079682956A
:102470009295907F9827807F98270E94FB150FC028
:102480008B81823061F48C81882F90E00B9682954D
:102490009295907F9827807F98270E94FB1581E076
:1024A00061E041E00E949C08198206C080E20E941F
:1024B000FB1589818F5F898389818031B8F381E041
:1024C00061E040E00E949C088B81813069F48C813E
:1024D000882F90E0079682959295907F9827807F2D
:1024E00098270E94FB150FC08B81823061F48C818C
:1024F000882F90E00B9682959295907F9827807F09
:1025000098270E94FB151A8202C082E08A838A8182
:102510000F900F900F900F90CF91DF910895CF9271
:10252000EF920F93DF93CF93CDB7DEB72E970FB611
:10253000F894DEBF0FBECDBF9E838D836F83488727
:1025400029870A87EB86CC8681E08C838D819E81EA
:10255000009709F4B3C01B821A8219828F818823E5
:1025600009F4A9C08F81893008F0A5C0888588301A
:1025700008F0A1C08885282F30E088E090E0AC0109
:10258000421B530B9A018F81882F90E0281739073F
:102590000CF491C08985882309F48DC08985833026
:1025A00008F089C08A85882309F485C08A8581312D
:1025B00008F081C08C85823008F07DC08B85853025
:1025C00008F079C0198219C08981282F30E08D81E7
:1025D0009E81820F931F9B838A838981982F969572
:1025E000969596958885292F280F8A819B81622F41
:1025F0000E94D8178981885F89838981282F30E0DC
:102600008F81882F90E0880F991F880F991F880F5E
:10261000991F28173907C4F281E061E040E00E9469
:102620009C088C85282F30E03E872D874D855E8560
:102630004115510549F08D859E858130910539F40C
:1026400086E00E94FB1503C084E00E94FB1581E038
:1026500061E040E00E949C088B85882F90E09C01FF
:10266000215030408985882F90E00197880F991F6D
:10267000880F991F820F931F82959295907F9827BC
:10268000807F9827982F8A85890F81580E94FB1593
:1026900081E061E041E00E949C08198206C08981C6
:1026A0000E94FB1589818F5F898399818F8198179B
:1026B000B0F31C8205C082E08C8302C083E08C836F
:1026C0008C812E960FB6F894DEBF0FBECDBFCF9192
:1026D000DF910F91EF90CF9008950F93DF93CF93F9
:1026E000CDB7DEB72E970FB6F894DEBF0FBECDBFC5
:1026F000688779878A879B874C872D870E8781E03B
:102700008B831A82198288859985AA85BB85BB230C
:102710008CF481E0898388859985AA85BB85B095ED
:10272000A095909581959F4FAF4FBF4F8887998710
:10273000AA87BB8788859985AA85BB858C839D835D
:10274000AE83BF838A818F5F8A838C819D81AE81B6
:10275000BF812AE030E040E050E0BC01CD010E94A2
:10276000D522DA01C9018C839D83AE83BF838C811E
:102770009D81AE81BF810097A105B10519F78C85B8
:10278000882309F46BC08C85833008F067C08D8581
:10279000882309F463C08D85813108F05FC08E8580
:1027A000853008F05BC08A81813108F057C0888588
:1027B0009985AA85BB858C839D83AE83BF83CE011B
:1027C00004960E94991881E061E040E00E949C0814
:1027D00081E061E041E00E949C088981882351F1F9
:1027E0008DE20E94FB1526C08C819D81AE81BF8148
:1027F0002AE030E040E050E0BC01CD010E94D5224B
:10280000DC01CB01805D0E94FB158C819D81AE8136
:10281000BF812AE030E040E050E0BC01CD010E94E1
:10282000D522DA01C9018C839D83AE83BF838A815F
:1028300081508A838C819D81AE81BF810097A105E3
:10284000B10591F606C080E30E94FB158A81815094
:102850008A838A818823B9F71B8202C082E08B8336
:102860008B812E960FB6F894DEBF0FBECDBFCF91F1
:10287000DF910F9108950F93DF93CF93CDB7DEB71C
:1028800063970FB6F894DEBF0FBECDBF6D877E870E
:102890008F87988B498B2A8B0B8B81E088871B82D3
:1028A0001A8219826D857E858F85988920E030E0B7
:1028B00040E050E00E94A90388235CF481E0898312
:1028C0008D859E85AF85B889B0588D879E87AF87E7
:1028D000B88B6D857E858F8598890E944900DC01C3
:1028E000CB0189879A87AB87BC8789859A85AB8519
:1028F000BC85BC01CD010E942D049B01AC016D85FE
:102900007E858F8598890E94C101DC01CB018C8373
:102910009D83AE83BF838B818F5F8B8389859A85EF
:10292000AB85BC852AE030E040E050E0BC01CD0141
:102930000E94B322DA01C90189879A87AB87BC87D5
:1029400089859A85AB85BC850097A105B10519F7E6
:1029500081E061E041E00E949C0819861A861B868E
:102960001C861FC06C817D818E819F8120E030E0BC
:1029700040E251E40E941F02DC01CB018C839D8365
:10298000AE83BF836C817D818E819F810E944900CF
:10299000DC01CB0189879A87AB87BC878A818F5FEF
:1029A0008A8389859A85AB85BC85BC01CD010E944F
:1029B0002D049B01AC016C817D818E819F810E94E1
:1029C000C101DC01CB01BC01CD012CEA35EC47E2B1
:1029D00057E30E94790388232CF68989882309F418
:1029E000FDC08989833008F0F9C08A89882309F4F9
:1029F000F5C08A89813108F0F1C08B89853008F0F3
:102A0000EDC08A81282F30E040E050E089859A852A
:102A1000AB85BC85820F931FA41FB51F8131910523
:102A2000A105B10508F0DAC081E061E040E00E9454
:102A30009C088B89882F90E09C0121503040898927
:102A4000882F90E00197880F991F880F991F820F98
:102A5000931F82959295907F9827807F9827982F33
:102A60008A89890F81580E94FB1581E061E041E06D
:102A70000E949C088981882319F08DE20E94FB1531
:102A80006D857E858F8598890E944900DC01CB0188
:102A900089879A87AB87BC87CE0109960E949918CF
:102AA00081E061E041E00E949C0826C089859A850A
:102AB000AB85BC852AE030E040E050E0BC01CD01B0
:102AC0000E94B322DC01CB01805D0E94FB15898549
:102AD0009A85AB85BC852AE030E040E050E0BC013F
:102AE000CD010E94B322DA01C90189879A87AB8799
:102AF000BC878B8181508B8389859A85AB85BC850A
:102B00000097A105B10591F606C080E30E94FB1570
:102B10008B8181508B838B818823B9F76C817D8178
:102B20008E819F8120E030E040E050E00E94190358
:102B3000882309F451C081E061E041E00E949C08D3
:102B40008EE20E94FB156C817D818E819F810E94A7
:102B50004900DC01CB0189879A87AB87BC87CE010E
:102B600009960E94991826C089859A85AB85BC85EF
:102B70002AE030E040E050E0BC01CD010E94B322E9
:102B8000DC01CB01805D0E94FB1589859A85AB85B0
:102B9000BC852AE030E040E050E0BC01CD010E945D
:102BA000B322DA01C90189879A87AB87BC878A81FA
:102BB00081508A8389859A85AB85BC850097A1055C
:102BC000B10591F606C080E30E94FB158A81815011
:102BD0008A838A818823B9F7188602C082E08887B1
:102BE000888563960FB6F894DEBF0FBECDBFCF9138
:102BF000DF910F910895DF93CF93CDB7DEB7AC97F8
:102C00000FB6F894DEBF0FBECDBF8CA781E08BA7B7
:102C100081E062E040E00E949C0881E063E040E0E7
:102C20000E949C088CA5982F991F9927991F80E0D6
:102C300067E0492F0E949C088CA582958695869511
:102C40008370982F917080E066E0492F0E949C0865
:102C50008CA5829586958770982F917080E065E0AD
:102C6000492F0E949C088CA582958F70982F917097
:102C700080E064E0492F0E949C0881E063E041E02D
:102C80000E949C0880E090E0A0E8BFE38FA398A793
:102C9000A9A7BAA76FA178A589A59AA520E030E0D9
:102CA0004AE755E40E941F02DC01CB018BA39CA3E1
:102CB000ADA3BEA36BA17CA18DA19EA120E030E0BD
:102CC00040E85FE30E94A90388232CF481E090E0B0
:102CD0009AA389A33FC06BA17CA18DA19EA120E0F6
:102CE0003FEF4FE757E40E94490318164CF56FA1D8
:102CF00078A589A59AA520E030E040E251E40E9441
:102D00001F02DC01CB01BC01CD010E944900DC01A6
:102D1000CB019AA389A30FC080E991E098A38F8F7C
:102D20008F8D98A10197F1F798A38F8F89A19AA110
:102D300001979AA389A389A19AA1009769F714C062
:102D40006BA17CA18DA19EA10E944900DC01CB0159
:102D50009AA389A389A19AA19E8F8D8F8D8D9E8D17
:102D60000197F1F79E8F8D8F81E063E040E00E9434
:102D70009C088CA5869586958695982F917080E005
:102D800067E0492F0E949C088CA586958695982F10
:102D9000917080E066E0492F0E949C088CA5869582
:102DA000982F917080E065E0492F0E949C088CA5C7
:102DB000982F917080E064E0492F0E949C0881E088
:102DC00063E041E00E949C0880E090E0A0E8BFE35F
:102DD000898F9A8FAB8FBC8F698D7A8D8B8D9C8DEF
:102DE00020E030E04AE755E40E941F02DC01CB01FD
:102DF0008D8B9E8BAF8BB88F6D897E898F89988DD7
:102E000020E030E040E85FE30E94A90388232CF42F
:102E100081E090E09C8B8B8B3FC06D897E898F8990
:102E2000988D20E03FEF4FE757E40E9449031816C2
:102E30004CF5698D7A8D8B8D9C8D20E030E040E2E1
:102E400051E40E941F02DC01CB01BC01CD010E94B4
:102E50004900DC01CB019C8B8B8B0FC080E991E09A
:102E60009A8B898B89899A890197F1F79A8B898B3B
:102E70008B899C8901979C8B8B8B8B899C89009774
:102E800069F714C06D897E898F89988D0E944900E9
:102E9000DC01CB019C8B8B8B8B899C89988B8F87DA
:102EA0008F8598890197F1F7988B8F8781E063E090
:102EB00040E00E949C0880E090E0A0E0B0E48B87B6
:102EC0009C87AD87BE876B857C858D859E8520E040
:102ED00030E04AE755E40E941F02DC01CB018F83FA
:102EE0009887A987BA876F81788589859A8520E038
:102EF00030E040E85FE30E94A90388232CF481E0DE
:102F000090E09E838D833FC06F81788589859A8507
:102F100020E03FEF4FE757E40E94490318164CF5B5
:102F20006B857C858D859E8520E030E040E251E414
:102F30000E941F02DC01CB01BC01CD010E944900AF
:102F4000DC01CB019E838D830FC080E991E09C83DF
:102F50008B838B819C810197F1F79C838B838D817F
:102F60009E8101979E838D838D819E81009769F755
:102F700014C06F81788589859A850E944900DC019B
:102F8000CB019E838D838D819E819A8389838981E4
:102F90009A810197F1F79A8389831BA68BA5AC963A
:102FA0000FB6F894DEBF0FBECDBFCF91DF9108956D
:102FB000DF93CF93CDB7DEB727970FB6F894DEBF78
:102FC0000FBECDBF9C838B836D8381E08A838B8111
:102FD0009C81009709F479C08D81883008F072C017
:102FE000198281E061E040E00E949C088D81282FD9
:102FF00030E03F832E838E819F8183309105A9F13C
:103000002E813F81243031057CF48E819F81813077
:10301000910519F12E813F812230310514F58E8101
:103020009F810097B1F034C02E813F81253031055A
:1030300021F18E819F8185309105DCF02E813F81C9
:1030400026303105F1F08E819F8187309105E9F0BE
:103050001FC080E40E94FB151BC088E40E94FB1582
:1030600017C080E50E94FB1513C088E50E94FB1580
:103070000FC080E60E94FB150BC088E60E94FB157E
:1030800007C080E70E94FB1503C088E70E94FB157C
:1030900081E061E041E00E949C0819820EC08981B4
:1030A000282F30E08B819C81FC01E20FF31F80818F
:1030B0000E94FB1589818F5F89838981883078F32D
:1030C0001A8205C082E08A8302C083E08A838A81F3
:1030D00027960FB6F894DEBF0FBECDBFCF91DF911C
:1030E0000895DF93CF9300D00F92CDB7DEB79B83C7
:1030F0008A8381E089838A819B81009789F0EA81B4
:10310000FB8180818A3048F4EA81FB818081805D87
:10311000EA81FB818083198205C082E0898302C035
:1031200083E0898389810F900F900F90CF91DF9179
:103130000895EF92FF920F931F93DF93CF93CDB734
:10314000DEB727970FB6F894DEBF0FBECDBF9F83C3
:103150008E831D828E819F81009709F458C0198249
:103160001A821B821C823CC089819A81AB81BC81FE
:103170002AE030E040E050E0BC01CD010E94942202
:103180007B018C01EE81FF8180819181A281B381DD
:103190002AE030E040E050E0BC01CD010E94B322C3
:1031A000DC01CB018E0D9F1DA01FB11F89839A8367
:1031B000AB83BC83EE81FF8180819181A281B38149
:1031C0002AE030E040E050E0BC01CD010E94B32293
:1031D000DA01C901EE81FF8180839183A283B383E9
:1031E000EE81FF8180819181A281B3810097A10549
:1031F000B10509F0B9CFEE81FF8189819A81AB8158
:10320000BC8180839183A283B3831D8202C083E04B
:103210008D838D8127960FB6F894DEBF0FBECDBF8C
:10322000CF91DF911F910F91FF90EF900895DF9361
:10323000CF9300D0CDB7DEB781E08A83198219829F
:1032400031C08981882F90E0880F991FFC01E45ECE
:10325000FD4F20818981882F90E0880F991FFC0104
:10326000E35EFD4F9081822F692F40E00E94C406EB
:103270008981882F90E0880F991FFC01E45EFD4F43
:1032800020818981882F90E0880F991FFC01E35EDF
:10329000FD4F9081822F692F41E00E94B007898104
:1032A0008F5F89838981843060F2198231C089817E
:1032B000882F90E0880F991FFC01EC5DFD4F208165
:1032C0008981882F90E0880F991FFC01EB5DFD4FED
:1032D0009081822F692F41E00E94C4068981882F46
:1032E00090E0880F991FFC01EC5DFD4F20818981E2
:1032F000882F90E0880F991FFC01EB5DFD4F9081B6
:10330000822F692F40E00E94B00789818F5F8983F7
:103310008981843060F21A828A810F900F90CF9158
:10332000DF910895DF93CF93CDB7DEB7AA970FB69D
:10333000F894DEBF0FBECDBF9DA38CA381E08A8B26
:103340008CA19DA1009709F4CDC1198A188A1F8606
:10335000ECA1FDA18FEF8083198ABFC18989882FD5
:1033600090E0880F991FFC01E45EFD4F4081898940
:10337000882F90E0880F991FFC01E35EFD4F90813C
:103380009E012D5E3F4F842F692FA9010E941E0AC6
:103390008B89882309F071C180E090E0A0E4B0E45B
:1033A0008B879C87AD87BE876B857C858D859E8549
:1033B00020E030E04AE755E40E941F02DC01CB0127
:1033C0008F839887A987BA876F81788589859A8541
:1033D00020E030E040E85FE30E94A90388232CF45A
:1033E00081E090E09E838D833FC06F8178858985E1
:1033F0009A8520E03FEF4FE757E40E9449031816F3
:103400004CF56B857C858D859E8520E030E040E223
:1034100051E40E941F02DC01CB01BC01CD010E94DE
:103420004900DC01CB019E838D830FC080E991E0D0
:103430009C838B838B819C810197F1F79C838B8389
:103440008D819E8101979E838D838D819E810097C2
:1034500069F714C06F81788589859A850E94490033
:10346000DC01CB019E838D838D819E819A8389832C
:1034700089819A810197F1F79A8389838989882FB5
:1034800090E0880F991FFC01E45EFD4F408189891F
:10349000882F90E0880F991FFC01E35EFD4F90811B
:1034A0009E012D5E3F4F842F692FA9010E941E0AA5
:1034B0008B89882309F00EC1188AD7C08889882F84
:1034C00090E0880F991FFC01EC5DFD4F20818889F9
:1034D000882F90E0880F991FFC01EB5DFD4F9081D4
:1034E000822F692F41E00E949C088989882F90E0F3
:1034F000880F991FFC01E45EFD4F40818989882F68
:1035000090E0880F991FFC01E35EFD4F90819E01C2
:103510002D5E3F4F842F692FA9010E941E0A8B89BF
:10352000813009F077C08989482F50E08889282F99
:1035300030E0CA01880F991F880F991F820F931FCF
:10354000FC01E858FD4F8081882309F074C0CE014A
:1035500044969FA38EA3EFE3F2E0F9A7E8A7F0E17A
:10356000FAA7E8A5F9A5008088A599A5019699A7CD
:1035700088A7EEA1FFA100828EA19FA101969FA323
:103580008EA39AA591509AA7EAA5EE2351F78989AF
:10359000282F30E08889482F50E0220F331F220F58
:1035A000331FCE010196820F931F840F951FFC01DC
:1035B00073968081ECA1FDA1808381E08F8789894A
:1035C000482F50E08889282F30E0CA01880F991FC2
:1035D000880F991F820F931FFC01E858FD4F81E06F
:1035E00080838889882F90E0880F991FFC01EC5D0B
:1035F000FD4F20818889882F90E0880F991FFC015A
:10360000EB5DFD4F9081822F692F40E00E949C0866
:103610001A8A2FC08989482F50E08889282F30E0E6
:10362000CA01880F991F880F991F820F931FFC01F1
:10363000E858FD4F10828889882F90E0880F991FE5
:10364000FC01EC5DFD4F20818889882F90E0880F78
:10365000991FFC01EB5DFD4F9081822F692F40E0A7
:103660000E949C0888898F5F888B8889843008F441
:1036700025CF8F858823C1F52DC08989882F90E0BB
:10368000880F991F880F991FFC01E858FD4F108281
:103690008989882F90E0880F991F880F991FFC0156
:1036A000E758FD4F10828989882F90E0880F991F75
:1036B0000196880F991FFC01E858FD4F10828989F7
:1036C000882F90E0880F991F880F991FFC01E558FB
:1036D000FD4F108289898F5F898B8989843008F436
:1036E0003DCE02C083E08A8B8A89AA960FB6F894F1
:1036F000DEBF0FBECDBFCF91DF910895DF93CF9393
:1037000000D0CDB7DEB781E08A831982198231C03B
:103710008981882F90E0880F991FFC01E35DFD4FA0
:1037200020818981882F90E0880F991FFC01E25D3C
:10373000FD4F9081822F692F41E00E94C40689814C
:10374000882F90E0880F991FFC01E35DFD4F2081D9
:103750008981882F90E0880F991FFC01E25DFD4F61
:103760009081822F692F40E00E949C0889818F5FA1
:10377000898390912C028981891750F21A828A815B
:103780000F900F90CF91DF910895DF93CF9300D0EA
:10379000CDB7DEB78A8381E0898390912C028A813C
:1037A0008917C8F48A81882F90E0880F991FFC013F
:1037B000E35DFD4F20818A81882F90E0880F991F5B
:1037C000FC01E25DFD4F9081822F692F41E00E9454
:1037D0009C08898302C082E0898389810F900F90C1
:1037E000CF91DF910895DF93CF9300D0CDB7DEB7AF
:1037F0008A8381E0898390912C028A818917C8F499
:103800008A81882F90E0880F991FFC01E35DFD4FAE
:1038100020818A81882F90E0880F991FFC01E25D4A
:10382000FD4F9081822F692F40E00E949C08898380
:1038300002C082E0898389810F900F90CF91DF9140
:103840000895DF93CF9300D0CDB7DEB781E08A83B0
:10385000198219821AC08981882F90E0880F991FD8
:10386000FC01E35DFD4F20818981882F90E0880F66
:10387000991FFC01E25DFD4F9081822F692F41E08D
:103880000E949C0889818F5F898390912C02898195
:10389000891708F382E08A838A810F900F90CF9175
:1038A000DF910895DF93CF9300D0CDB7DEB781E0ED
:1038B0008A83198219821AC08981882F90E0880F23
:1038C000991FFC01E35DFD4F20818981882F90E0E5
:1038D000880F991FFC01E25DFD4F9081822F692FB7
:1038E00040E00E949C0889818F5F898390912C021F
:1038F0008981891708F38A810F900F90CF91DF910A
:103900000895DF93CF93CDB7DEB782E067E041E063
:103910000E949C08CF91DF910895DF93CF93CDB79C
:10392000DEB70E949A1C0E94B11C80E090E0CF910B
:10393000DF910895DF93CF930F92CDB7DEB781E08B
:1039400089830E94B20F0E9417190E94AF0E0E9435
:103950007E1B0E94AC0D198289810F90CF91DF915F
:103960000895DF93CF93CDB7DEB7C354D0400FB6E1
:10397000F894DEBF0FBECDBFABC380918802282F65
:1039800030E023963FAF2EAF239723968EAD9FADA9
:1039900023978430910509F491C223962EAD3FAD53
:1039A0002397253031053CF523968EAD9FAD2397A7
:1039B0008130910509F4B9C023962EAD3FAD239710
:1039C000223031053CF423968EAD9FAD23970097AE
:1039D00099F17EC323962EAD3FAD2397223031055A
:1039E00009F400C223968EAD9FAD239783309105D5
:1039F00009F42AC26DC323962EAD3FAD239726301E
:103A0000310509F4B6C223968EAD9FAD239786305B
:103A100091050CF483C223962EAD3FAD239727303A
:103A2000310509F4D6C223968EAD9FAD2397883019
:103A3000910509F447C34CC380E00E947A2080E0DE
:103A400090E0AAEFB4E48DAB9EABAFABB8AF6DA97D
:103A50007EA98FA998AD20E030E04AE755E40E94A6
:103A60001F02DC01CB0189AB9AABABABBCAB69A944
:103A70007AA98BA99CA920E030E040E85FE30E948E
:103A8000A90388232CF481E090E098AB8FA73FC076
:103A900069A97AA98BA99CA920E03FEF4FE757E4D9
:103AA0000E94490318164CF56DA97EA98FA998ADFF
:103AB00020E030E040E251E40E941F02DC01CB0133
:103AC000BC01CD010E944900DC01CB0198AB8FA75E
:103AD0000FC080E991E09EA78DA78DA59EA50197B7
:103AE000F1F79EA78DA78FA598A9019798AB8FA7EF
:103AF0008FA598A9009769F714C069A97AA98BA91D
:103B00009CA90E944900DC01CB0198AB8FA78FA52F
:103B100098A99CA78BA78BA59CA50197F1F79CA7BB
:103B20008BA781E080938802D3C281E00E947A2033
:103B300047C11AAE19AE82E060E141E00E94411136
:103B400080918902805D0E942A1182E061E041E05B
:103B50000E9441111AC0CE01CB960E9492198BADE2
:103B60008F3F99F08AAD8F5F8AAF8AE20E942A1157
:103B70008AAD882F90E00197FC01E15DFD4F9081B7
:103B80008BAD981711F081E089AF8AAD853018F3BD
:103B900089AD882309F48CC082E061E00E9418128C
:103BA00082E061E041E00E94411180E690E00E94E5
:103BB0008A1181E00E94FA2180E090E0AAEFB4E44B
:103BC0008FA398A7A9A7BAA76FA178A589A59AA539
:103BD00020E030E04AE755E40E941F02DC01CB01FF
:103BE0008BA39CA3ADA3BEA36BA17CA18DA19EA121
:103BF00020E030E040E85FE30E94A90388232CF432
:103C000081E090E09AA389A33FC06BA17CA18DA124
:103C10009EA120E03FEF4FE757E40E9449031816AA
:103C20004CF56FA178A589A59AA520E030E040E287
:103C300051E40E941F02DC01CB01BC01CD010E94B6
:103C40004900DC01CB019AA389A30FC080E991E070
:103C500098A38F8F8F8D98A10197F1F798A38F8FDD
:103C600089A19AA101979AA389A389A19AA10097F2
:103C700069F714C06BA17CA18DA19EA10E9449008F
:103C8000DC01CB019AA389A389A19AA19E8F8D8F74
:103C90008D8D9E8D0197F1F79E8F8D8F82E061E073
:103CA0000E941812809189028F5F8093890288C0D8
:103CB00082E061E00E94181282E061E041E00E942F
:103CC00041118BE690E00E948A1180E090E0AAEF1B
:103CD000B4E4898F9A8FAB8FBC8F698D7A8D8B8D71
:103CE0009C8D20E030E04AE755E40E941F02DC0191
:103CF000CB018D8B9E8BAF8BB88F6D897E898F8921
:103D0000988D20E030E040E85FE30E94A90388231B
:103D10002CF481E090E09C8B8B8B3FC06D897E8979
:103D20008F89988D20E03FEF4FE757E40E944903C9
:103D300018164CF5698D7A8D8B8D9C8D20E030E0C6
:103D400040E251E40E941F02DC01CB01BC01CD0125
:103D50000E944900DC01CB019C8B8B8B0FC080E95A
:103D600091E09A8B898B89899A890197F1F79A8BCF
:103D7000898B8B899C8901979C8B8B8B8B899C89E8
:103D8000009769F714C06D897E898F89988D0E948C
:103D90004900DC01CB019C8B8B8B8B899C89988B98
:103DA0008F878F8598890197F1F7988B8F8782E0AD
:103DB00061E00E9418121092890282E080938802CA
:103DC00080918902833028F480918802813009F43F
:103DD000B0CE80918902833009F07AC188E0809367
:103DE000880276C182E00E947A2026C0CE01CC965D
:103DF0000E9492198CAD813321F483E08093880274
:103E00001BC08CAD823321F485E08093880214C0FE
:103E10008CAD833321F486E0809388020DC08CAD95
:103E2000843321F487E08093880206C08CAD8F3FF5
:103E300019F081E00E94FA218CAD8F3FB9F2809198
:103E40008802823099F244C183E00E947A202EC019
:103E5000CE01CD960E9492198DAD813331F410922E
:103E60003E0284E08093880221C08DAD823339F414
:103E700081E080933E0284E08093880217C08DAD7C
:103E8000833339F482E080933E0284E08093880299
:103E90000DC08DAD843321F482E08093880206C08A
:103EA0008DAD8F3F19F081E00E94FA218DAD8F3FDB
:103EB00079F280918802833059F20AC184E00E942D
:103EC0007A2024C0CE01CE960E9492198EAD813305
:103ED00029F480913E020E94F60E18C08EAD823306
:103EE00029F480913E020E94240F10C08EAD8333CE
:103EF00039F48FEF80933E0283E08093880206C0FE
:103F00008EAD8F3F19F081E00E94FA218EAD8F3F78
:103F1000C9F2809188028430A9F2DAC085E00E945B
:103F20007A201FC0CE01CF960E9492198FAD8133A7
:103F300021F480E00E94F30D14C08FAD823321F490
:103F400080E00E94210E0DC08FAD833321F483E009
:103F50008093880206C08FAD8F3F19F081E00E94E8
:103F6000FA218FAD8F3FF1F2809188028530D1F236
:103F7000AFC086E00E947A2081E06FE041E00E94BD
:103F8000411184E790E00E948A1118C0CE01805C44
:103F90009F4F0E949219FE01E05CFF4F80818133A8
:103FA00021F482E08093880209C0FE01E05CFF4FAB
:103FB00080818F3F19F081E00E94FA21FE01E05CD0
:103FC000FF4F80818F3F11F3809188028630F1F29C
:103FD0007FC087E00E947A2080E090E0AAEFB4E4FE
:103FE0008B879C87AD87BE876B857C858D859E85FD
:103FF00020E030E04AE755E40E941F02DC01CB01DB
:104000008F839887A987BA876F81788589859A85F4
:1040100020E030E040E85FE30E94A90388232CF40D
:1040200081E090E09E838D833FC06F817885898594
:104030009A8520E03FEF4FE757E40E9449031816A6
:104040004CF56B857C858D859E8520E030E040E2D7
:1040500051E40E941F02DC01CB01BC01CD010E9492
:104060004900DC01CB019E838D830FC080E991E084
:104070009C838B838B819C810197F1F79C838B833D
:104080008D819E8101979E838D838D819E81009776
:1040900069F714C06F81788589859A850E944900E7
:1040A000DC01CB019E838D838D819E819A838983E0
:1040B00089819A810197F1F79A83898389E08093B6
:1040C000880206C088E00E947A200E94211CFFCF4F
:1040D00080918802893009F050CC81E00E94B911AA
:1040E000CD5BDF4F0FB6F894DEBF0FBECDBFCF91D3
:1040F000DF910895CF92EF920F93DF93CF93CDB7D7
:10410000DEB7E1970FB6F894DEBF0FBECDBF8AA72A
:1041100081E089838AA5282F30E03CA72BA78BA5B7
:104120009CA58430910509F4AEC0EBA5FCA5E53053
:10413000F105ECF42BA53CA52130310509F446C06E
:104140008BA59CA5823091052CF4EBA5FCA530979E
:1041500039F141C12BA53CA52230310509F443C0FA
:104160008BA59CA58330910509F465C034C1EBA5EE
:10417000FCA5E630F10509F4C4C02BA53CA526300A
:1041800031050CF49FC08BA59CA58730910509F4DF
:10419000CEC0EBA5FCA5E830F10509F4DEC01BC1DB
:1041A00081E00E94B91181E065E041E00E94411187
:1041B00087E790E00E948A1182E065E041E00E947A
:1041C000411180E890E00E948A1107C181E00E94BD
:1041D000B91181E061E041E00E9441118BE890E07B
:1041E0000E948A11FAC081E00E94B91181E061E069
:1041F00041E00E9441118CE990E00E948A1181E027
:1042000068E041E00E94411182EA90E00E948A1138
:1042100082E061E041E00E94411187EA90E00E9463
:104220008A1182E068E041E00E9441118EEA90E04C
:104230000E948A11D2C081E00E94B91181E061E040
:1042400041E00E94411185EB90E00E948A1181E0DB
:1042500069E041E00E9441118CEB90E00E948A11DC
:1042600082E061E041E00E94411183EC90E00E9415
:104270008A1182E069E041E00E9441118AEC90E0FD
:104280000E948A11AAC081E00E94B91181E061E018
:1042900041E00E94411181ED90E00E948A1181E08D
:1042A00068E041E00E94411186ED90E00E948A1191
:1042B00082E061E041E00E9441118CED90E00E94BB
:1042C0008A118BC081E00E94B91181E061E041E078
:1042D0000E94411181ED90E00E948A1181E068E026
:1042E00041E00E94411186ED90E00E948A1182E037
:1042F00061E041E00E9441118CED90E00E948A1142
:104300006CC081E00E94B91181E061E041E00E944F
:10431000411183EE90E00E948A1182E061E041E069
:104320000E94411182EF90E00E948A1156C081E004
:104330000E94B91181E065E041E00E94411189EFDE
:1043400090E00E948A1182E065E041E00E94411104
:1043500080E890E00E948A1140C081E00E94B9117B
:104360009E012E5F3F4F3EA72DA78FE492E098ABB2
:104370008FA798E299ABEFA5F8A900802FA538A9DF
:104380002F5F3F4F38AB2FA7EDA5FEA500822DA5CF
:104390003EA52F5F3F4F3EA72DA739A9315039AB1E
:1043A00089A9882341F7CE01029665E040E021E02B
:1043B0000AE0EE24E394CC240E948F1286E00E944F
:1043C000131182E065E041E00E94411182E091E03A
:1043D0000E948A1102C082E089838981E1960FB62A
:1043E000F894DEBF0FBECDBFCF91DF910F91EF905C
:1043F000CF900895DF93CF93CDB7DEB760970FB618
:10440000F894DEBF0FBECDBF888B81E08F8782E03E
:1044100060E148890E94411188E50E942A1180E0EC
:1044200090E0AAEFB3E48B879C87AD87BE876B854E
:104430007C858D859E8520E030E04AE755E40E942A
:104440001F02DC01CB018F839887A987BA876F8110
:10445000788589859A8520E030E040E85FE30E9416
:10446000A90388232CF481E090E09E838D833FC0D4
:104470006F81788589859A8520E03FEF4FE757E483
:104480000E94490318164CF56B857C858D859E85A9
:1044900020E030E040E251E40E941F02DC01CB0149
:1044A000BC01CD010E944900DC01CB019E838D83BC
:1044B0000FC080E991E09C838B838B819C81019765
:1044C000F1F79C838B838D819E8101979E838D83E1
:1044D0008D819E81009769F714C06F8178858985E9
:1044E0009A850E944900DC01CB019E838D838D81DA
:1044F0009E819A83898389819A810197F1F79A83B2
:10450000898382E060E148890E94411180E20E9433
:104510002A111F868F8560960FB6F894DEBF0FBEF6
:10452000CDBFCF91DF910895629FD001739FF001BD
:10453000829FE00DF11D649FE00DF11D929FF00D33
:10454000839FF00D749FF00D659FF00D9927729F6A
:10455000B00DE11DF91F639FB00DE11DF91FBD01F5
:10456000CF0111240895A1E21A2EAA1BBB1BFD0145
:104570000DC0AA1FBB1FEE1FFF1FA217B307E40742
:10458000F50720F0A21BB30BE40BF50B661F771F9A
:10459000881F991F1A9469F760957095809590957A
:1045A0009B01AC01BD01CF01089597FB092E0526A3
:1045B0000ED057FD04D0D7DF0AD0001C38F4509538
:1045C0004095309521953F4F4F4F5F4F0895F6F737
:1045D00090958095709561957F4F8F4F9F4F08956F
:1045E0002F923F924F925F926F927F928F929F9203
:1045F000AF92BF92CF92DF92EF92FF920F931F93F1
:10460000CF93DF93CDB7DEB7CA1BDB0B0FB6F894A1
:10461000DEBF0FBECDBF09942A88398848885F84E1
:104620006E847D848C849B84AA84B984C884DF8052
:10463000EE80FD800C811B81AA81B981CE0FD11D36
:104640000FB6F894DEBF0FBECDBFED010895F8940C
:02465000FFCF9A
:10465200494E434F52524543542100434F52524513
:104662004354210032350057454C434F4D452100FC
:104672004C4F4144494E472E2E2E00454E54455232
:104682002050415353574F52443A2000312D4C454C
:104692004400322D414300332D54454D5000342DFA
:1046A2004558495400312D4C45443000322D4C457B
:1046B200443100332D4C45443200342D4241434BAA
:1046C20000312D4F4E00322D4F464600332D4241D0
:1046D200434B0054454D5045524154555245203D9F
:1046E2002000312D4241434B00474F4F4442594530
:1046F20021002121212121212100000000000000B0
:10470200000000010202030303030404040404047E
:104712000404050505050505050505050505050549
:104722000505060606060606060606060606060629
:104732000606060606060606060606060606060617
:1047420006060707070707070707070707070707F9
:1047520007070707070707070707070707070707E7
:1047620007070707070707070707070707070707D7
:1047720007070707070707070707070707070707C7
:1047820007070808080808080808080808080808A9
:104792000808080808080808080808080808080897
:1047A2000808080808080808080808080808080887
:1047B2000808080808080808080808080808080877
:1047C2000808080808080808080808080808080867
:1047D2000808080808080808080808080808080857
:1047E2000808080808080808080808080808080847
:1047F2000808080808080808080808080808080837
:10480200080801030303030203010300020002017B
:104812000202020302040205020602070103043136
:104822003233343500000000000000000000FF3782
:1048320038392F343536783132332D4330232B003B
:10484200000E011F0000000000000407040418000D
:1048520004040404000000000007051F000000001B
:0848620000070412110E000012
:00000001FF
